:020000040800F2
:1000000070AA0020E1010008E9010008EB010008E6
:10001000ED010008EF010008F101000800000000F8
:10002000000000000000000000000000490100087E
:10003000F5010008000000008D010008F907000824
:10004000FB010008FB010008FB010008FB010008A0
:10005000FB010008FB010008FB010008FB01000890
:10006000FB010008FB010008FB010008FB01000880
:10007000FB010008FB010008FB010008FB01000870
:10008000FB010008FB010008FB010008FB01000860
:10009000FB010008FB010008FB010008FB01000850
:1000A000FB010008FB010008FB010008FB01000840
:1000B000FB010008FB010008FB010008FB01000830
:1000C000FB010008FB010008FB010008FB01000820
:1000D000FB0100088D080008FB010008FB01000877
:1000E000FB010008FB010008FB010008FB01000800
:1000F000FB010008FB010008FB010008FB010008F0
:10010000FB010008FB010008FB010008FB010008DF
:10011000FB010008FB010008FB010008FB010008CF
:10012000FB010008FB010008FB010008FB010008BF
:10013000DFF810D000F0E0F800480047990D000803
:10014000AFF3008070AA0020224B19680868B0E85D
:10015000F00F80F30988BFF36F8F4FF0000080F33A
:1001600011884EF00D0E7047000000000648006830
:10017000006880F3088862B661B6BFF34F8FBFF3A3
:100180006F8F00DF00BF00BF08ED00E0EFF30980D4
:10019000BFF36F8F0F4B1A6820E9F00F106008B59E
:1001A0004FF0BF0080F31188BFF34F8FBFF36F8F05
:1001B00002F04CF84FF0000080F31188BDE80840D1
:1001C00019680868B0E8F00F80F30988BFF36F8FF3
:1001D000704700BF3C000020EFF30580704700002F
:1001E0000648804706480047FEE7FEE7FEE7FEE7D1
:1001F000FEE7FEE7FEE7FEE7FEE7FEE72D08000864
:100200003101000840EA01039B0703D009E008C957
:10021000121F08C0042AFAD203E011F8013B00F8CB
:10022000013B521EF9D27047D2B201E000F8012B17
:10023000491EFBD270470022F6E710B513460A4666
:1002400004461946FFF7F0FF204610BD10B50446DE
:1002500004E00B7800F8013B03B1491C521EF8D2B0
:10026000204610BD421C10F8011B0029FBD1801A4A
:10027000704710B5044600E0401C0378002BFBD10A
:1002800000E0401C521E04D311F8013B0370002B08
:10029000F7D100210170204610BD034611F8012B53
:1002A00000F8012B002AF9D11846704730B50546F1
:1002B0000020034600E05B1C934205D2EC5CC85C66
:1002C000201A01D1002CF6D130BD30B50B460146C5
:1002D00000202022012409E021FA02F59D4205D3E5
:1002E00003FA02F5491B04FA02F52844151EA2F18F
:1002F0000102F1DC30BD0000064C074D06E0E0686D
:1003000040F0010394E8070098471034AC42F6D35C
:10031000FFF712FF00330008203300080048704741
:10032000B400002030B503460024002000251560ED
:1003300022E000E05B1C1D7815B11D78202DF9D15D
:1003400000E05B1C1D7815B11D78202DF9D01D78BB
:100350008DB1641C8C420FD1184603E015686D1CEA
:1003600015605B1C1D7815B11D78202DF6D1156820
:1003700005B9002002E001E08C42DAD300BF30BDB5
:100380002DE9F04704468846914601262E4800682C
:1003900098BB2E482C4908602AE02B48006800686A
:1003A00007683846FFF75EFF05462A46394620466D
:1003B000FFF77CFFB8B9605D202801D0605D90B97F
:1003C00021480068006890F90C0000280ADB2046EC
:1003D00000F078FE1C490968096891F90C10884200
:1003E00000D0002608E018480068406816490860F8
:1003F000154800680028D0D100BF1348006848B1F4
:1004000046B94A4612494046FFF720FF00200E49F0
:10041000086016E00C48006868B10B480068006886
:100420002246494683684046984706464EB9002012
:100430000549086005E04A4606494046FFF706FFC1
:1004400000263046BDE8F087200000201400002080
:1004500048300008A030000870B505460026082086
:1004600001F056FB044664B101F09AFC25600020BF
:1004700060600548006844600348046001F0A2FC25
:100480000126304670BD00001C0000202DE9F0411F
:10049000024600250026002000230024002791F8B2
:1004A00003C00CF00F0591F803C00CF0100CBCF168
:1004B000000F03D091F802C04CEA050591F800C086
:1004C000BCF1000F31D0146800202BE04FF0010C7C
:1004D0000CFA00F3B1F800C00CEA03069E4220D1EA
:1004E00083004FF00F0C0CFA03F7BC4305FA03FC32
:1004F0004CEA040491F803C0BCF1280F06D14FF078
:10050000010C0CFA00FCC2F814C00AE091F803C018
:10051000BCF1480F05D14FF0010C0CFA00FCC2F8F9
:1005200010C0401C0828D1D31460B1F800C0BCF141
:10053000FF0F34DD546800202EE000F1080C4FF06E
:10054000010808FA0CF3B1F800C00CEA03069E4259
:1005500021D183004FF00F0C0CFA03F7BC4305FACE
:1005600003FC4CEA040491F803C0BCF1280F05D148
:1005700000F1080C08FA0CF8C2F8148091F803C0D6
:10058000BCF1480F07D100F1080C4FF0010808FA40
:100590000CF8C2F81080401C0828CED35460BDE887
:1005A000F0814161704701617047000070B5002122
:1005B00000230F22C47804B3154C246804F4E064CB
:1005C000C4F5E064210AC1F10403CA40447804FA86
:1005D00003F184781440214309010E4C0678A1559B
:1005E000047804F01F050124AC4005786D11AD00BE
:1005F00005F1E025C5F8004109E0047804F01F0585
:100600000124AC40044D0678761145F8264070BDB3
:100610000CED00E000E400E080E100E029B1064AD2
:1006200092690243044B9A6104E0034A926982434F
:10063000014B9A61704700000010024030B5002164
:100640000022002400232D4D6D6805F00C0121B11E
:10065000042905D0082923D105E0294D056022E0B1
:10066000274D05601FE0254D6D6805F47012234D80
:100670006D6805F48034022505EB92421CB9214DCA
:10068000554305600BE01D4D6D6805F400351DB147
:100690001C4D5543056002E0194D5543056002E0CD
:1006A000174D056000BF00BF144D6D6805F0F001E7
:1006B0000909154D6B5C0568DD4045600F4D6D689F
:1006C00005F4E061090A104D6B5C4568DD4085600A
:1006D0000A4D6D6805F46051C90A0B4D6B5C4568A5
:1006E000DD40C560054D6D6805F44041890B074D3F
:1006F0006B5CC568B5FBF3F5056130BD00100240C9
:1007000000127A0000093D000000002010000020C7
:1007100010B500F001F810BD0CB50020019000905C
:100720003348006840F480303149086000BF3048E9
:10073000006800F4003000900198401C019000987F
:1007400018B90198B0F5A06FF1D12948006800F4FC
:10075000003010B10120009001E0002000900098CE
:10076000012843D12348006840F010002149086067
:100770000846006820F0070008600846006840F05E
:10078000020008601A4840681949486008464068F5
:1007900048600846406840F4806048600846406809
:1007A00020F47C1048600846406840F4E810486037
:1007B0000846006840F08070086000BF0C48006880
:1007C00000F000700028F9D00948406820F00300CC
:1007D000074948600846406840F00200486000BF92
:1007E0000348406800F00C000828F9D10CBD000057
:1007F000001002400020024010B500BFBF2080F36F
:100800001188BFF34F8FBFF36F8F00BF02F02AF93B
:1008100018B14FF080500449086000BF002080F3F9
:10082000118800BF10BD000004ED00E010B51348B2
:10083000006840F00100114908600846406810490E
:1008400008400E494860084600680E4908400B49B8
:1008500008600846006820F4802008600846406868
:1008600020F4FE0048604FF41F008860FFF750FF3F
:100870004FF000600449086010BD00000010024005
:100880000000FFF8FFFFF6FE08ED00E010B501F0F4
:1008900031FD10BD21B1828942F40052828104E011
:1008A00082894DF6FF731A4082817047024600200C
:1008B000B1F5007F00D100BF13880B400BB10120C0
:1008C00000E00020704770B5024600240023002598
:1008D000002040F66A16B14200D100BFC1F34215B4
:1008E00001F01F03012606FA03F3012D02D19689B8
:1008F000334006E0022D02D1168A334001E0968A89
:1009000033400C12012606FA04F41688344013B161
:100910000CB1012000E0002070BDF0B503460024BA
:1009200000260025002040F66A17B94200D100BF1A
:100930001846C1F3421401F01F06012707FA06F515
:10094000012C01D10C3004E0022C01D1103000E068
:1009500014301AB107682F43076002E00768AF43FD
:100960000760F0BD2DE9F04786B005460E4600242D
:10097000A24600BFA1460027B08900B100BF2F46A4
:100980002C8A4CF6FF700440F08804432C82AC891A
:100990004EF6F3100440B08831890843718908434A
:1009A0000443AC81AC8A4FF6FF400440B089044355
:1009B000AC8201A8FFF742FE1F48874202D1DDF852
:1009C00010A001E0DDF80CA0A88900F4004040B1BF
:1009D0000AEBCA0000EB0A1031684900B0FBF1F8DD
:1009E00007E00AEBCA0000EB0A1031688900B0FB8F
:1009F000F1F86420B8FBF0F004012009642101FB48
:100A00001089A88900F4004040B1322000EBC900F1
:100A1000B0FBF1F000F00700044308E0322000EBE7
:100A200009106421B0FBF1F000F00F0004432C81A9
:100A300006B0BDE8F0870000003801400146888814
:100A4000C0F308007047C1F30802828070470000BD
:100A50000FB4054B10B503A9044A029800F02CF816
:100A600010BC5DF814FB0000090D0008B000002068
:100A70000FB4084B10B504A902AA039800F01CF8A3
:100A8000044602A9002000F0F3F8204610BC5DF8EF
:100A900014FB0000710C000802E008C8121F08C116
:100AA000002AFAD170477047002001E001C1121FEF
:100AB000002AFBD1704700002DE9FF4F8BB09A460A
:100AC0000F460546002606E025280BD052460D9914
:100AD00090476D1C761C28780028F5D10FB0304661
:100AE000BDE8F08F0024A0460122604900E00443E5
:100AF00015F8013F203B02FA03F00842F7D12878AD
:100B00002E2817D115F8010F44F004042A280ED01E
:100B10006FF02F022878A0F1300109290AD808EBDC
:100B2000880102EB410100EB01086D1CF2E757F868
:100B3000048B6D1C287869283ED006DC0028CDD0B7
:100B400063280BD0642804D136E0732810D07528B0
:100B50004BD052460D999047761C85E017F8040B50
:100B60008DF8000000208DF80100E946012003E027
:100B700057F8049B4FF0FF3061074FF0000401D499
:100B80000AE0641C44450DDA8442FADB19F80410CB
:100B90000029F6D106E0641C8442FCDB19F804103D
:100BA0000029F8D1264404E019F8010B52460D99AA
:100BB0009047641EF8D257E001CF4FF00A0B00288F
:100BC00002DA40422D2102E0210504D52B218DF8C7
:100BD0002410012103E0E10705D02021F7E70DF102
:100BE000200908910CE00021F9E701CF4FF00A0B32
:100BF000F9E75946FFF769FB01F1300209F8012DC9
:100C00000028F6D1ADEB090000F1200B600701D4FC
:100C10004FF00108D84502DDA8EB0B0000E00020F2
:100C20008046002406E009A85246005D0D999047D1
:100C3000641C761C08988442F5DB04E030205246A0
:100C40000D999047761CB8F10001A8F10108F5DC78
:100C500005E019F8010B52460D999047761CBBF13F
:100C60000001ABF1010BF4DC6D1C34E70928010035
:100C70000A68531C0B601070704700002DE9F047A4
:100C800007463E461B480068864201D100242DE0FD
:100C900001F086F875691848D0F800801748D0F838
:100CA000009001F08FF8454501D04D4501D1022457
:100CB0001CE01348854212D1B06A70B903240020A9
:100CC00007E006F15801095C012901D1022402E084
:100CD000401C0128F5DB00BF08E0022406E00948BB
:100CE000854200D00DB9042400E001242046BDE86F
:100CF000F08700003C00002040000020440000205D
:100D0000300600201C06002070B504460E46002563
:100D1000E1B20948FFF797FE05E06D1C42F2107042
:100D2000854200D905E080210348FFF7BFFD002878
:100D3000F3D000BF204670BD0038014010B501F06F
:100D4000A9F810BD08B501210820FFF767FC202095
:100D5000ADF8000010208DF8030003208DF802008C
:100D600069460C48FFF792FB20210A48FFF71BFC5D
:100D70000FE020210748FFF714FC4FF47A7001F0D0
:100D8000AFF820210348FFF70EFC4FF47A7001F012
:100D9000A7F8EEE7000C014010B5FFF7CFFF00F019
:100DA0004BFF01F00FFA002010BD00002DE9F041CB
:100DB00005460E462048076820480068001D00F0E0
:100DC00053FF681CD8B9D6B11D4948681B4909684A
:100DD00088601A4982680968CA6018490968091D4B
:100DE0008268516015490968091D8160144A1349D8
:100DF00009684A6111460968491C11601AE07C19AA
:100E00000E4800684460BC4207D20C480168091DC6
:100E10000C48006800F0AAFF0CE008480168091DB2
:100E20000948006800F0A2FF08480068844201D227
:100E300006480460BDE8F081500000203C0000201E
:100E40003006002044000020400000206C000020FC
:100E500010B5044600F0A4FF30480068401C2F493C
:100E600008602F48006840B92D48046008460068B3
:100E700001280DD100F018FA0AE02A48006838B9B4
:100E800027480068C06AE16A884201D824480460A3
:100E900025480068401C24490860084600686064D2
:100EA0002249E06A0968884202D92049E06A08605C
:100EB000E16A01EB81011E4A02EB81014868A060F2
:100EC0008268E260211D826851608160E16A01EB05
:100ED0008101174A02EB81026261E16A01EB810143
:100EE000134A52F82110491CE26A02EB8202104BAD
:100EF00043F8221000F066FF0A48006868B108480D
:100F00000068C06AE16A884207D24FF08050094900
:100F10000860BFF34F8FBFF36F8F10BD4C000020F0
:100F20003C000020580000206800002054000020F1
:100F30001805002004ED00E010B500F031FF0C486A
:100F4000006890B90B4800F001FF0B4800F0FEFE6E
:100F500008480A49086008480949086000220C212D
:100F60000A2001F028FA0249086000F02BFF10BDAA
:100F70008400002044060020580600207C00002049
:100F80008000002010B516E000F00AFF0C48C06891
:100F9000C468201D00F068FE0A480068401E094928
:100FA000086009480068401E0749086000F00AFF11
:100FB000204600F05FF8044800680028E4D110BD26
:100FC0001C0600204C0000204800002070B504469C
:100FD0000D46206C70B1216CE0680144E160D4E9F9
:100FE0000210884201D32168E1602846226CE16842
:100FF000FFF708F970BD2DE9F04104460F4615468C
:101000004FF00008A66B206C48B9206800282CD14E
:10101000A06801F0EFFD80460020A06025E07DB9CA
:101020003946226C6068FFF7EDF8216C606808446F
:101030006060D4E90101884217D32068606014E041
:101040003946226CE068FFF7DDF8216CE068411A50
:10105000E1602168E068884203D2216CA068411AEF
:10106000E160022D01D106B1761E701CA0634046DE
:10107000BDE8F08110B50446206B00F0B3FE2046B9
:1010800000F0B0FE10BD01464A6A22B10A6B126838
:10109000C2F10A0000E00020704700000146084A43
:1010A000126812680AB9012200E000220A600A6888
:1010B00022B9034A1268D268106800E00020704725
:1010C0007C0000200146002000220AE00B78202B43
:1010D00005D1012A04D0431C58B2012200E00022AD
:1010E000491C0B78002BF1D1012A01D1431E58B2C3
:1010F0007047000030B54FF42043154800F0070456
:101100002CB1C01D20F00700114C041B1B1B024614
:10111000104C226000240F4D6C60D018083820F06D
:1011200007000D4C206000240B4D2D686C600A4DAB
:101130002D682C601146441A4C60074C24680C60E2
:10114000064D4C682C60064D4C682C6030BD00008C
:101150006C0600209000002098000020A0000020D5
:101160009C0000202DE9F04106460D4617460E482A
:10117000006810B90D480C4908600B480068006809
:101180002A4641683046FFF761F807480068406822
:10119000054908600846006808B9002400E00124F9
:1011A0002046BDE8F081000024000020140000204B
:1011B00000BFFFF7E7FE064800680128F9D94FF0A5
:1011C000805004490860BFF34F8FBFF36F8FF0E783
:1011D0001805002004ED00E010B5044654B10020CD
:1011E000A06020600021E16000231A4619462046D5
:1011F00001F058F910BD2DE9F04106460D4617469D
:101200009846069C0DB9246000E02760E6632564DB
:101210000121204601F0F6F884F84C80BDE8F08109
:101220002DE9F05F81460E4690469A460A9F0C9C37
:101230004FEA8801A522206BFEF7F6FFA8F1010016
:10124000216B01EB800B2BF0070B7EB1002507E033
:10125000715D04F134004155705D00B902E06D1C10
:10126000102DF5D300BF0021432001550A2F00D3D4
:101270000927E762E764201D00F075FD04F11800FE
:1012800000F071FD2461C7F10A00A061646252465A
:101290004946584600F0BEFC20600B9808B10B98F8
:1012A0000460BDE8F09F000010B5002407E004EBE7
:1012B00084010F4A02EB810000F048FD641C0A2CF7
:1012C000F5D30C4800F042FD0B4800F03FFD0B4801
:1012D00000F03CFD0A4800F039FD0A4800F036FDF8
:1012E00004480949086004480849086010BD000026
:1012F00018050020E0050020F40500200806002065
:101300001C06002030060020400000204400002081
:1013100010B50146164800E0006803688B42FBD315
:101320000246436813448B4204D143684C6823440B
:10133000436001460A464B6813440468A34211D136
:101340000C4C03682468A34208D04B6804686468A6
:1013500023444B6003681B680B6005E0054B1B686A
:101360000B6001E003680B60884200D0016010BD93
:1013700090000020980000202DE9F04104460D4621
:1013800016461F464FF0000865602461B5420CD830
:10139000F01BA169884202D34FF0010811E0211D22
:1013A0000948006800F0E2FC0BE0BE4204D2BD42F6
:1013B00002D34FF0010804E0211D0448006800F04A
:1013C000D5FC4046BDE8F081800000207C00002074
:1013D00070B5054600F0E4FCA86B08B9012400E0F4
:1013E000002400F0EFFC204670BD70B5054600F00B
:1013F000D7FCA86BE96B884201D1012400E00024EE
:1014000000F0E0FC204670BD2DE9F04707460C4691
:1014100090460026206848B32046416849684160EC
:1014200000F1080142688A4202D14168496841607E
:101430004168D1F80C9000BF20464168496841607E
:1014400000F1080142688A4202D14168496841605E
:101450004168CD6806EBC60007EB800143460122D8
:10146000284600F057FD761C4D45E5D13046BDE8D5
:10147000F08700002DE9F8430646884617461B48CA
:10148000006840B91AA13046FFF7F2FA0120174967
:101490000860012527E06A46144801683846FEF7CF
:1014A00041FF0446D4B141463046FEF7C4FE0F4822
:1014B00015A102683046FFF7DBFA21463046009A54
:1014C000FEF7D7FE02220FA13046FEF7D2FE01251D
:1014D00006480068401C0549086004E000203070A0
:1014E0000025024908602846BDE8F8832C0000204A
:1014F00054686520706172616D65746572732077E0
:101500006572653A0D0A000025643A20000000006B
:1015100070B505460E460E480068C068C468201DB8
:1015200000F0A2FB94F8280000F0040028B1324635
:101530002946204600F0C4F805E094F8280000F0A1
:10154000FE0084F828002046216A884770BD00000C
:101550007C0000207FB56EE0019800286BDB039CC7
:10156000606908B9012000E0002010B9201D00F0DA
:101570007BFB684600F0D0F8054601980A2858D24F
:10158000DFE800F05705072E364706082F3700BF63
:1015900000BF00BF94F8280040F0010084F8280044
:1015A0000298A269811803462A462046FFF7E4FE06
:1015B000A8B194F8280000F0040038B10298A2699C
:1015C00081182A46204600F07BF805E094F82800B0
:1015D00000F0FE0084F828002046216A884729E0B0
:1015E00000BF94F8280000F0FE0084F8280021E0F5
:1015F00000BF94F8280040F0010084F82800029809
:10160000A061A06941192B462A462046FFF7B4FE87
:1016100010E094F8280000F0020018B9204600F00D
:10162000E1FB05E094F8280000F0FE0084F82800B3
:1016300000E000BF00BF002201A90348006801F0DC
:1016400009F8002888D17FBD84000020F8B5054640
:101650000C4600F0F3FD684600F05EF80646009880
:1016600020BB44B9B54206D801F0FEFB31462846FE
:10167000FFF74EFF1CE03CB10E480068006808B957
:10168000012000E000200446A91B22460A48006809
:1016900000F0DAFB01F0E8FB50B94FF08050074949
:1016A0000860BFF34F8FBFF36F8F01E001F0DCFBE9
:1016B000F8BD0000800000208400002004ED00E060
:1016C00070B504460D46164604E0A0690544204660
:1016D000216A8847A06941192B4632462046FFF708
:1016E0004BFE0028F1D170BD09480068006808B9B8
:1016F000012000E0002020B14FF0FF3005490860D4
:1017000005E003480068C068006802490860704747
:10171000400000206C00002070B5044601F09CF9E8
:10172000054607480068854204D200F00BF8012006
:10173000206001E00020206001480560284670BD5F
:101740008C00002070B508E00D480068C06804688F
:101750004FF0FF312046FFF7DBFE094800680068C4
:1017600008B9012000E000200028EDD004480568F9
:1017700004480068024908600248056070BD000026
:101780007C000020800000200246002101E0521C65
:10179000491C1078A528FAD0890888B2704700BF84
:1017A000BF2080F31188BFF34F8FBFF36F8F00BF4F
:1017B00000BFFEE72DE9F047044689469246164DE4
:1017C00016A12046FEF769FD2046FEF74BFD0444B6
:1017D00000F0C0FD074600F0B7FD80463A4641469E
:1017E00010A0FFF735F9042605E020202070641CC6
:1017F00000202070761C0D2EF7DB29462046FEF7D0
:101800004CFD2846FEF72EFD0719384600F0D0FBA8
:101810000020BDE8F0870000283100085461736B98
:10182000000000000D0A4672656520486561702061
:1018300053697A653A2025640D0A4D696E69204620
:101840007265652053697A653A2025640D0A0000A7
:101850002DE9F84306460F4615461C48006840B976
:101860001BA13046FFF704F9012018490860012444
:1018700029E06A46154801682846FEF753FD804670
:1018800039463046FEF7D7FC104819A102683046A9
:10189000FFF7EEF841463046009AFEF7EAFC0222D6
:1018A00015A13046FEF7E5FC08480068032804D17E
:1018B000002400200549086005E001240348006871
:1018C000401C024908602046BDE8F883280000203B
:1018D00054686520746872656520706172616D6519
:1018E0007465727320776572653A0D0A0000000016
:1018F00025643A20000000000D0A000008B500BF72
:101900006846FFF7CBFB044620460099FFF79EFE92
:10191000FFF720FEF4E7000008B50024FEF7FEFC08
:10192000074619214FF4E13000F0C0FF80464848D7
:101930000068FEF797FC86B232464548016840468B
:1019400000F0BAFA00BF00BF4FF0FF3269464046D0
:1019500000F09AFF0128F7D14FF496713D480068D6
:1019600000F0FAFE0128EED1821E9DF900104046DB
:1019700000F0FEFF9DF800000A2803D09DF800004B
:101980000D2837D134480068FEF76CFC86B2324629
:1019900031480168404600F08FFA1CB92F493048A1
:1019A000FEF77BFC00BF4FF4806239462C48FEF7FF
:1019B000E7FC05463846FEF755FC86B23246394606
:1019C000404600F079FA002DEDD125492348FEF775
:1019D00064FC002432212248FEF72DFC21480068D7
:1019E000FEF740FC86B232461E480168404600F0D1
:1019F00063FA23E09DF800000D281FD09DF8000039
:101A0000082803D09DF800007F2807D1002C15DDA1
:101A1000601EC4B20020124908550FE09DF9000075
:101A200020280BDB9DF900007E2807DC322C05DA2C
:101A30009DF800000A490855601CC4B200BF00238D
:101A40001A4619460348006800F02CFD7BE70000A9
:101A50003C3000083400002044300008E604002038
:101A6000B40400204030000870B5044600F098F936
:101A700094F9455010E0606A08B9012000E00020A8
:101A800038B904F1240001F06BF918B100F0FEFA46
:101A900000E003E0681E45B2002DECDC00BFFF2033
:101AA00084F8450000F08EF900F07AF994F944507A
:101AB00010E0206908B9012000E0002048B904F1D5
:101AC000100001F04DF908B100F0E0FA681E45B2CF
:101AD00000E001E0002DECDC00BFFF2084F84400B2
:101AE00000F070F970BD70B505460E4631462846C7
:101AF000FEF7D3FB2846FEF7B5FB044602E02020A4
:101B00002855641C0F2CFAD300202855281970BDC5
:101B10002DE9F04705464FF0000900F08FFB3048F3
:101B2000006808B9FFF7E6FA75B105F00700C0F1E3
:101B30001008C8F1FF30A84201D2012000E00020C7
:101B400008B9454400E00025012000EBE5700028BD
:101B500041D0002D3FD02348006885423BD8224E1B
:101B60003046046801E0264624686068A84202D234
:101B700020680028F7D11A48006884422BD03068CA
:101B800000F10809206830606068401B102807D900
:101B900067196068401B786065603846FFF7B8FBDE
:101BA000104960680968081A0E490860084600680C
:101BB0000E490968884203D20A4800680B49086048
:101BC000606840F0004060600020206008480068C5
:101BD000401C0749086001F047F94846BDE8F08716
:101BE000980000209C00002090000020A000002011
:101BF000A40000200648006830B10549096801F1D9
:101C00005000096D491C01600148006870470000E0
:101C10003C000020001F4FF080730360001F21F084
:101C200001030360001F034B036014380260203877
:101C3000704700009F1700080EB502A8022100237C
:101C4000CA01CDE9001004A1064800F0D1FE01212F
:101C5000480200F037FB0EBD6C65645F7461736B06
:101C600000000000450D000801460A69D1E9013075
:101C70009860D1E9010358605068884201D18868B2
:101C80005060002008611068401E106010687047A6
:101C900001480068704700004C0000202DE9F04129
:101CA00005468846164600240A2700F0C7FA214850
:101CB0000068804539D300BF7F1E07EB87021E4BAB
:101CC00003EB820104EBC40205EB82000122FFF763
:101CD0009BFB0444002FEFD104EBC40105EB810012
:101CE000022216490968FFF78FFB044404EBC40184
:101CF00005EB8100022212490968FFF785FB0444C5
:101D000004EBC40105EB810004220E49FFF77CFBC4
:101D1000044404EBC40105EB810003220A49FFF7E8
:101D200073FB04440EB10020306001F09DF82046A2
:101D3000BDE8F0814C000020180500204000002084
:101D4000440000201C0600203006002000F108019D
:101D500041604FF0FF31816000F10801C160016115
:101D600000210160704700210161704710B50246F3
:101D70000B685C1C0CB9106907E002F1080000E078
:101D80004068446824689C42FAD944684C604C68B6
:101D9000A160886041600A611468641C146010BD11
:101DA00000BFBF2080F31188BFF34F8FBFF36F8F49
:101DB00000BF03480068401C0149086070470000EC
:101DC000AC00002006480068401E0549086008462F
:101DD000006820B9002080F3118800BF00BF704761
:101DE000AC00002070B506463546E6B1083D2C46ED
:101DF0006068C00FB8B12068A8B9606820F00040E2
:101E0000606000F01BFA08496068096808440649E8
:101E100008602046FFF77CFA04480068401C03492C
:101E2000086001F021F870BD9C000020A80000208F
:101E300000204FF0E02108618861024848610720D6
:101E4000086170473F1901002DE9F04105460E4633
:101E500017462C46FFF7A4FF94F94400401C10B924
:101E6000002084F8440094F94500401C10B900207B
:101E700084F84500FFF7A6FFA06B28B93A46314623
:101E800004F1240000F018F92046FFF7EDFDBDE84D
:101E9000F081000010B50548FEF7DEFA0448FEF7B1
:101EA000DBFA0448FEF7D8FA10BD00000C30000839
:101EB0001C3000082C3000082DE9F04106460D4684
:101EC00017462C4606E094F900100022304600F038
:101ED0004FFD641C20780028F5D1BDE8F08100009A
:101EE00070B50446002544B100F0A8F90021204651
:101EF000FEF75CFF00F0B8FF05463DB94FF080509B
:101F000003490860BFF34F8FBFF36F8F70BD0000B0
:101F100004ED00E02DE9F04107460C4690461E46D0
:101F200017B91C48006800E038460546256005F1F1
:101F300034006060E86A2061286BE061686CA06032
:101F4000E86C60610020A061052E12D01148006885
:101F5000854202D1002020730FE02673032E0CD19E
:101F600000F06CF9A86A08B10220207300F07CFF31
:101F700003E02846FEF782FE2073B8F1000F04D07C
:101F8000286BFFF701FC208401E000202084BDE8DD
:101F9000F08100003C00002003490968016003490A
:101FA0000968416070470000640000205000002074
:101FB0002DE9FC410646002030702F480768014695
:101FC000096801EBC1018800FFF7A2FD0546002D5D
:101FD00050D0002239462846FFF760FE074600240D
:101FE00043E004EBC40005EB8000007B062813D21D
:101FF000DFE800F00306090C0F134FF058080FE05C
:102000004FF052080CE04FF0420809E04FF053083F
:1020100006E04FF0440803E000BF4FF0000800BFA7
:1020200000BF04EBC40005EB800041683046FFF7B9
:102030005AFD064604EBC40005EB8000806804EB03
:10204000C40105EB8101098CCDE9001004EBC4004B
:1020500005EB8000424609A103693046FEF708FD02
:102060003046FEF7FFF80644641CBC42B9D328464C
:10207000FFF7B8FEBDE8FC814C000020092563098C
:1020800025750925750925750D0A000001200149EE
:10209000086070476000002070B505460C46054892
:1020A000016818312846FFF761FE01212046FEF73E
:1020B0007DFE70BD3C00002070B504460E461546FE
:1020C00060680F490968C8610D49826809680A6239
:1020D0000B4909681831826851600949096818314B
:1020E0008160074909688C622168491C21600DB133
:1020F0004FF0FF3629463046FEF758FE70BD00000F
:102100003C0000202DE9F04706460F4634464FF0CC
:102110000109002E4FD0E06CB84201D23D4600E0EC
:10212000E56CE06AA84246D0206D012843D1D4F87E
:102130002C80E562A06900F0004010B9C5F10A00EA
:10214000A06108EB88011D4A02EB810160698842A9
:1021500001D1012000E0002068B3201DFFF784FDBD
:102160001749E06A0968884202D91549E06A08609F
:10217000E16A01EB8101114A02EB81014868A0602C
:102180008268E260211D826851608160E16A01EB32
:1021900081010A4A02EB81026261E16A01EB81017D
:1021A000064A52F82110491CE26A02EB8202034BF4
:1021B00043F8221000BFBDE8F0870000180500209A
:1021C000540000201CB5154800210B468022CDE9A3
:1021D000001013A1144800F00BFC0446012C02D19E
:1021E00000F0EEFE0446012C14D100BFBF2080F3A6
:1021F0001188BFF34F8FBFF36F8F00BF4FF0FF30D9
:102200000A49086001200A4908600020094908605D
:1022100000F0A6F8084800681CBD0000700000200F
:1022200049444C4500000000B11100086C0000203A
:102230005800002050000020740000200248006870
:10224000401C014908607047780000201848006869
:1022500018B101201749086028E0002015490860DE
:102260001548016800E0491E01EB8100134A52F84D
:10227000200008B9012000E000200028F3D101EB84
:1022800081020E4B03EB820042685268426000F10B
:1022900008024368934202D1426852684260426831
:1022A000D268074B1A600448016000BF7047000005
:1022B0007800002060000020540000201805002055
:1022C0003C0000207CB504460D46012000F062F879
:1022D0000549086000200346224604A1CDE90050CC
:1022E000034800F085FB7CBD34000020434C4900CE
:1022F000191900081CB50020019040F225510F4823
:10230000FEF7E1FA01280BD10C48FEF797FBC0B2AB
:102310000090002301AA69460948006800F04EF9C0
:1023200000BF019838B14FF0805006490860BFF3F4
:102330004F8FBFF36F8F00BF1CBD000000380140FE
:102340003000002004ED00E0014800687047000004
:102350009C0000200148006870470000A000002099
:1023600010B50A48006840F47F0008490860084634
:10237000006840F07F400860FFF75AFD00200449E4
:102380000860FDF7F3FE002010BD000020ED00E026
:10239000AC0000202DE9F04104460126002722462A
:1023A0000021012000F007F805462846FEF714FF3B
:1023B0002846BDE8F0812DE9F84304460E4617464D
:1023C0000025DCB1681EB0FBF4F0B04216D304FB6C
:1023D00006F010F1510F11D804FB06F909F1500075
:1023E000FFF796FB05464DB1A84608F150083B465D
:1023F0004246314620460095FEF7FDFE2846BDE8E0
:10240000F88300002DE9F04105460E4601272C46D1
:10241000002C41D0E06B00283ED0B91EE06BB1FB30
:10242000F0F0216C884237D3FFF7BAFCD4E90F12E1
:10243000206801FB0200A0600020A06320686060AB
:10244000E06B401E226C216800FB0211E160FF205E
:1024500084F8440084F845009EB9206908B9012039
:1024600000E00020A8B904F1100000F079FC80B170
:102470004FF080500A490860BFF34F8FBFF36F8F52
:1024800007E004F11000FFF761FC04F12400FFF7FE
:102490005DFCFFF797FC00E000273846BDE8F081BF
:1024A00004ED00E02DE9FF4383B0074688461D4652
:1024B0004FF000093C4600BFFFF772FCA06BE16BD8
:1024C000884201D3022D28D12A4641462046FEF7F4
:1024D00092FD0646606A08B9012000E0002068B954
:1024E00004F1240000F03CFC88B14FF080503249E8
:1024F0000860BFF34F8FBFF36F8F08E03EB14FF01E
:1025000080502D490860BFF34F8FBFF36F8FFFF7E7
:1025100059FC012007B0BDE8F083059818B9FFF712
:1025200051FC0020F6E7B9F1000F04D101A8FFF734
:1025300033FD4FF00109FFF745FCFFF77FFEFFF782
:102540002FFC94F94400401C10B9002084F844008A
:1025500094F94500401C10B9002084F84500FFF7AD
:1025600031FC05A901A800F013FAF0B92046FEF7E6
:102570003CFFA0B104F110000599FFF78DFD204646
:10258000FFF772FA00F070FC002895D14FF08050F0
:1025900009490860BFF34F8FBFF36F8F8CE7204668
:1025A000FFF762FA00F060FC86E72046FFF75CFA6E
:1025B00000F05AFC0020ADE704ED00E02DE9FF4FEC
:1025C00081B0054616461F462C4600BFBF21EFF3DB
:1025D000118081F31188BFF34F8FBFF36F8F00BF5E
:1025E0008146A06BE16B884201D3022F28D194F978
:1025F00045A0A06B00903A4620460299FEF7FBFCEE
:102600000AF1010070B9606A08B9012000E00020F9
:1026100038B904F1240000F0A3FB10B10EB1012081
:1026200030600AE0FFF734FB8346DA4504D20AF152
:10263000010040B284F8450000BF4FF0010801E0FE
:102640004FF0000800BF89F3118800BF404605B075
:10265000BDE8F08F2DE9F74183B005460F464FF0F6
:1026600000082C4600BFFFF79BFBA66BF6B139466E
:102670002046FEF7ABFC701EA063206908B901205C
:1026800000E0002060B904F1100000F069FB38B1EF
:102690004FF080502F490860BFF34F8FBFF36F8F0B
:1026A000FFF790FB012006B0BDE8F081059818B94E
:1026B000FFF788FB0020F6E7B8F1000F04D101A86E
:1026C000FFF76AFC4FF00108FFF77CFBFFF7B6FD50
:1026D000FFF766FB94F94400401C10B9002084F811
:1026E000440094F94500401C10B9002084F84500CE
:1026F000FFF768FB05A901A800F04AF9F0B92046E8
:10270000FEF766FEA0B104F124000599FFF7C4FCB2
:102710002046FFF7A9F900F0A7FB0028A3D14FF04E
:1027200080500C490860BFF34F8FBFF36F8F9AE75B
:102730002046FFF799F900F097FB94E72046FFF752
:1027400093F900F091FB2046FEF742FE00288AD064
:102750000020A8E704ED00E02DE9F34182B0054632
:1027600000272C46B84600BFFFF71AFBA66BFEB148
:10277000701EA063206810B9FFF73CFAA0602069C2
:1027800008B9012000E0002060B904F1100000F059
:10279000E7FA38B14FF080503A490860BFF34F8FE5
:1027A000BFF36F8FFFF70EFB012004B0BDE8F0818F
:1027B000039818B9FFF706FB0020F6E71FB9684633
:1027C000FFF7EAFB0127FFF7FDFAFFF737FDFFF7F9
:1027D000E7FA94F94400401C10B9002084F8440042
:1027E00094F94500401C10B9002084F84500FFF71B
:1027F000E9FA03A9684600F0CBF840BB2046FEF793
:10280000E7FDF0B1206838B9FFF7CAFAA06800F018
:102810003BFA8046FFF7D6FA04F124000399FFF74C
:102820003BFC2046FFF720F900F01EFB00289BD15F
:102830004FF0805013490860BFF34F8FBFF36F8F85
:1028400092E72046FFF710F900F00EFB8CE72046D8
:10285000FFF70AF900F008FB2046FEF7B9FD002853
:1028600082D0B8F1000F0BD0FFF79AFA2046FEF79E
:102870000AFC06463146A068FFF744FCFFF7A2FABF
:10288000002092E704ED00E070B506460C461546C0
:102890002A46214604480068FFF7DCFE08B1012003
:1028A00070BD0020FCE700003000002070B586B04D
:1028B00004460D46002201212846FFF77CFD2949E8
:1028C000086008460068002848D0012144F204004E
:1028D000FDF7A4FE4FF48060ADF8000004208DF8F1
:1028E000030069462048FDF7D1FD4FF40070ADF8B4
:1028F000000003208DF8020018208DF803006946BF
:102900001948FDF7C3FD02940020ADF80C00ADF8A6
:102910000E00ADF81000ADF814000C20ADF8120058
:1029200002A91248FEF71EF8012240F225510F4875
:10293000FDF7F3FF25208DF804000F208DF805002A
:1029400000208DF8060001208DF8070001A8FDF792
:102950002DFE01210548FDF79DFF00E000263046D1
:1029600006B070BD30000020000801400038014072
:102970002DE9F04106460C461746214603A0FEF716
:1029800067F801252846BDE8F081000025630000B6
:1029900070B506460C46FFF703FA134802687068E4
:1029A000131A2068401C08B9002519E00F49306847
:1029B0000968884206D07068904203D8012500203B
:1029C00020600DE02068984207D92068C01A206076
:1029D0003046FFF7E1FA002502E0002020600125E3
:1029E000FFF7F0F9284670BD500000206400002079
:1029F0002DE9FF4F85B0804689461746DDE912ABC9
:102A0000B800FFF785F8064676B15C20FFF780F83E
:102A100004462CB15C212046FDF70DFC266304E042
:102A20003046FFF7DFF900E000247CB10020CDE95B
:102A300000ABCDE902403A4649464046089BFEF7C6
:102A4000EFFB2046FEF704FA012501E04FF0FF35C9
:102A5000284609B0BDE8F08F0149086870470000BA
:102A6000500000202DE9F041002757480068002859
:102A70007DD156480068451C544805608DB95448BE
:102A8000D0F8008053480068514908605148C0F8A8
:102A9000008051480068401C4F490860FEF724FE42
:102AA00000BF4E480068854275D300BF48480068A3
:102AB000006808B9012000E0002020B14FF0FF308D
:102AC0004649086066E042480068C068C4686668B5
:102AD000B54202D2414806605CE06069D4E9021266
:102AE0008A60D4E902214A60211D42688A4201D1EC
:102AF000E1684160002262610168491E0160A06ACC
:102B000098B1A06AD4E907128A60D4E907214A6023
:102B100004F1180142688A4201D1216A4160002211
:102B2000A2620168491E016000BF2D49E06A096880
:102B3000884202D92A49E06A0860E16A01EB810112
:102B4000284A02EB81014868A0608268E260211D8A
:102B5000826851608160E16A01EB8101214A02EBE8
:102B600081026261E16A01EB81011E4A00E022E01C
:102B700052F82110491CE26A02EB8202194B43F819
:102B800022101949E06A0968C96A88428ED901276A
:102B90008CE700E000BF14480068C06A00EB8000CA
:102BA000104951F82000012800D901270F4800687A
:102BB00000B1012704E00E480068401C0C49086081
:102BC0003846BDE8F0810000780000205000002069
:102BD0004000002044000020640000206C00002021
:102BE00054000020180500203C0000206000002058
:102BF0005C00002070B505462C460026002D3CD018
:102C0000206D401E2065E16CE06A884235D0206D61
:102C100098BB201DFFF728F8E06CE062E06AC0F185
:102C20000A00A0611649E06A0968884202D914497D
:102C3000E06A0860E16A01EB8101124A02EB81015E
:102C40004868A0608268E260211D826851608160EE
:102C5000E16A01EB81010B4A02EB81026261E16AE8
:102C600001EB8101074A52F82110491CE26A02EB8C
:102C70008202044B43F822100126304670BD00004A
:102C8000540000201805002070B505462C4600268B
:102C9000002D5CD02F49E06A0968C96A88424FD28A
:102CA000A06900F0004028B92A480068C06AC0F155
:102CB0000A00A061E16A01EB8101274A02EB810170
:102CC0006069884201D1012000E0002088B3201D06
:102CD000FEF7CAFF1F480068C06AE0621F49E06A49
:102CE0000968884202D91D49E06A0860E16A01EB7F
:102CF0008101194A02EB81014868A0608268E260A4
:102D0000211D826851608160E16A01EB8101124AF4
:102D100002EB81026261E16A01EB81010E4A52F825
:102D20002110491CE26A02EB82020B4B43F822108D
:102D300004E0FFE707480068C06AE062012606E099
:102D40000449E06C0968C96A884200D2012630460D
:102D500070BD00003C000020180500205400002039
:102D600070B50346D868C168886AD1E90745A5608F
:102D7000D1E90754656001F118044568A54201D105
:102D80000C6A446000258D620468641E046030484B
:102D9000006800283CD14869D1E90245A560D1E925
:102DA000025465600C1D4568A54201D1CC684460A1
:102DB00000254D610468641E0460264CC86A2468BE
:102DC000A04202D9234CC86A2060CC6A04EB840478
:102DD000214D05EB8404606888608568CD600C1D1A
:102DE00085686C608460CC6A04EB84041A4D05EB42
:102DF00084054D61CC6A04EB8404174D55F82440DA
:102E0000641CCD6A05EB8505134E46F8254010E09D
:102E1000124C6068C86185680D6201F1180485680C
:102E20006C6084600D4D8D622C462468641C2C609F
:102E300000BF0B4CC86A2468E46AA04204D901228E
:102E40000120084C206000E00022104670BD000008
:102E500078000020540000201805002008060020FB
:102E60003C0000206000002070B500240026FEF722
:102E700097FF4A480068401E4849086008460068B5
:102E800000287DD146480068002879D05AE045489E
:102E9000C068C468A06AD4E907128A60D4E907212F
:102EA0004A6004F1180142688A4201D1216A4160F6
:102EB0000022A2620168491E01606069D4E9021221
:102EC0008A60D4E902214A60211D42688A4201D108
:102ED000E1684160002262610168491E0160324977
:102EE000E06A0968884202D92F49E06A0860E16A0D
:102EF00001EB81012D4A02EB81014868A0608268E4
:102F0000E260211D826851608160E16A01EB81010C
:102F1000264A02EB81026261E16A01EB8101234AE8
:102F200052F82110491CE26A02EB82021F4B43F85F
:102F300022101F49E06A0968C96A884202D3012049
:102F40001C4908601748006808B9012000E000200B
:102F500000289CD00CB1FEF7C7FB1748056865B187
:102F600000BFFFF77FFD10B10120124908606D1E00
:102F7000002DF6D10020104908600E48006800E0DE
:102F800008E038B1012630070C490860BFF34F8FC5
:102F9000BFF36F8FFEF716FF304670BD780000203C
:102FA0004C000020080600205400002018050020D6
:102FB0003C000020600000205C00002004ED00E0E8
:102FC0001CB50024FDF7B8FF0748006850B107485A
:102FD000092100238022CDE9001005A10648FFF752
:102FE00007FD044620461CBD840000208800002008
:102FF000546D722053766300FD18000820310008DC
:10300000F030000865110008000000008032000860
:1030100080310008B5170008000000008832000861
:10302000C831000851180008030000009C32000855
:103030002C32000875140008FF000000B0320008B0
:10304000FC320008AC320008496E636F727265632F
:103050007420636F6D6D616E6420706172616D6567
:103060007465722873292E2020456E7465722022A3
:1030700068656C702220746F207669657720612006
:103080006C697374206F6620617661696C61626C33
:103090006520636F6D6D616E64732E0D0A0D0A00FD
:1030A000436F6D6D616E64206E6F74207265636F27
:1030B000676E697365642E2020456E7465722027E3
:1030C00068656C702720746F2076696577206120B1
:1030D0006C697374206F6620617661696C61626CE3
:1030E0006520636F6D6D616E64732E0D0A0D0A00AD
:1030F0000D0A68656C703A0D0A204C697374732070
:10310000616C6C20746865207265676973746572A0
:10311000656420636F6D6D616E64730D0A0D0A0046
:1031200068656C700000000020202020205374612E
:1031300074652020205072696F7269747920205361
:103140007461636B20202020230D0A2A2A2A2A2A50
:103150002A2A2A2A2A2A2A2A2A2A2A2A2A2A2A2ACF
:103160002A2A2A2A2A2A2A2A2A2A2A2A2A2A2A2ABF
:103170002A2A2A2A2A2A2A2A2A2A2A0D0A0000006A
:103180000D0A7461736B3A0D0A20446973706C61A7
:1031900079732061207461626C652073686F776950
:1031A0006E6720746865207374617465206F662093
:1031B00065616368204672656552544F532074619F
:1031C000736B0D0A000000000D0A6563686F2D33F4
:1031D0002D706172616D6574657273203C706172EF
:1031E000616D313E203C706172616D323E203C70F9
:1031F0006172616D333E3A0D0A20457870656374E3
:103200007320746872656520706172616D657465A4
:1032100072732C206563686F732065616368206931
:103220006E207475726E0D0A000000000D0A656351
:10323000686F2D706172616D6574657273203C2ECC
:103240002E2E3E3A0D0A2054616B6520766172691C
:1032500061626C65206E756D626572206F662070AC
:103260006172616D65746572732C206563686F733C
:10327000206561636820696E207475726E0D0A00A6
:103280007461736B000000006563686F2D332D70EF
:103290006172616D65746572730000006563686FCB
:1032A0002D706172616D6574657273000D0A0000A6
:1032B0004672656552544F5320636F6D6D616E6445
:1032C000207365727665722E0D0A547970652048F8
:1032D000656C7020746F20766965772061206C6959
:1032E0007374206F662072656769737465726564B4
:1032F00020636F6D6D616E64732E0D0A0D0A3E00C2
:103300002033000800000020B4000000980A0008E4
:10331000D4330008B4000020BCA90000A80A0008AB
:10332000000000000102030401020304060708096B
:1033300002040608FC2F0008000000001400002012
:10334000000000000000000000000000000000007D
:10335000000000000000000000000000000000006D
:10336000000000000000000000000000000000005D
:10337000000000000000000000000000000000004D
:10338000000000000000000000000000000000003D
:103390000000000009000000000000000000000024
:1033A000000000000000000000000000000000001D
:1033B000000000000000000000000000000000000D
:1033C000000000000000000000000000AAAAAAAA55
:0433D00000000000F9
:0400000508000131BD
:00000001FF
